{
  "contractName": "InternalContract",
  "abi": [
    {
      "constant": true,
      "inputs": [],
      "name": "currentValue",
      "outputs": [
        {
          "name": "",
          "type": "uint256"
        }
      ],
      "payable": false,
      "stateMutability": "view",
      "type": "function"
    },
    {
      "constant": false,
      "inputs": [],
      "name": "renounceOwnership",
      "outputs": [],
      "payable": false,
      "stateMutability": "nonpayable",
      "type": "function"
    },
    {
      "constant": true,
      "inputs": [],
      "name": "oracle",
      "outputs": [
        {
          "name": "",
          "type": "address"
        }
      ],
      "payable": false,
      "stateMutability": "view",
      "type": "function"
    },
    {
      "constant": true,
      "inputs": [],
      "name": "latestTimestamp",
      "outputs": [
        {
          "name": "",
          "type": "uint256"
        }
      ],
      "payable": false,
      "stateMutability": "view",
      "type": "function"
    },
    {
      "constant": true,
      "inputs": [],
      "name": "owner",
      "outputs": [
        {
          "name": "",
          "type": "address"
        }
      ],
      "payable": false,
      "stateMutability": "view",
      "type": "function"
    },
    {
      "constant": true,
      "inputs": [],
      "name": "ORACLE_PAYMENT",
      "outputs": [
        {
          "name": "",
          "type": "uint256"
        }
      ],
      "payable": false,
      "stateMutability": "view",
      "type": "function"
    },
    {
      "constant": true,
      "inputs": [
        {
          "name": "",
          "type": "address"
        }
      ],
      "name": "plidbs",
      "outputs": [
        {
          "name": "depositor",
          "type": "address"
        },
        {
          "name": "totalcredits",
          "type": "uint256"
        }
      ],
      "payable": false,
      "stateMutability": "view",
      "type": "function"
    },
    {
      "constant": true,
      "inputs": [],
      "name": "jobId",
      "outputs": [
        {
          "name": "",
          "type": "string"
        }
      ],
      "payable": false,
      "stateMutability": "view",
      "type": "function"
    },
    {
      "constant": true,
      "inputs": [],
      "name": "tsyms",
      "outputs": [
        {
          "name": "",
          "type": "string"
        }
      ],
      "payable": false,
      "stateMutability": "view",
      "type": "function"
    },
    {
      "constant": false,
      "inputs": [
        {
          "name": "_newOwner",
          "type": "address"
        }
      ],
      "name": "transferOwnership",
      "outputs": [],
      "payable": false,
      "stateMutability": "nonpayable",
      "type": "function"
    },
    {
      "constant": true,
      "inputs": [],
      "name": "fsyms",
      "outputs": [
        {
          "name": "",
          "type": "string"
        }
      ],
      "payable": false,
      "stateMutability": "view",
      "type": "function"
    },
    {
      "inputs": [
        {
          "name": "_pli",
          "type": "address"
        },
        {
          "name": "_oracle",
          "type": "address"
        },
        {
          "name": "_jobid",
          "type": "string"
        },
        {
          "name": "_fsyms",
          "type": "string"
        },
        {
          "name": "_tsyms",
          "type": "string"
        }
      ],
      "payable": false,
      "stateMutability": "nonpayable",
      "type": "constructor"
    },
    {
      "anonymous": false,
      "inputs": [
        {
          "indexed": true,
          "name": "requestId",
          "type": "bytes32"
        },
        {
          "indexed": true,
          "name": "currentVal",
          "type": "uint256"
        },
        {
          "indexed": false,
          "name": "timestamp",
          "type": "uint256"
        }
      ],
      "name": "RequestFulfilled",
      "type": "event"
    },
    {
      "anonymous": false,
      "inputs": [
        {
          "indexed": true,
          "name": "requester",
          "type": "address"
        },
        {
          "indexed": true,
          "name": "jobId",
          "type": "bytes32"
        },
        {
          "indexed": true,
          "name": "requestId",
          "type": "bytes32"
        },
        {
          "indexed": false,
          "name": "timestamp",
          "type": "uint256"
        }
      ],
      "name": "requestCreated",
      "type": "event"
    },
    {
      "anonymous": false,
      "inputs": [
        {
          "indexed": true,
          "name": "jobId",
          "type": "bytes32"
        },
        {
          "indexed": true,
          "name": "requestId",
          "type": "bytes32"
        },
        {
          "indexed": false,
          "name": "timestamp",
          "type": "uint256"
        }
      ],
      "name": "requestCreatedTest",
      "type": "event"
    },
    {
      "anonymous": false,
      "inputs": [
        {
          "indexed": true,
          "name": "owner",
          "type": "address"
        },
        {
          "indexed": true,
          "name": "oraclefee",
          "type": "uint256"
        },
        {
          "indexed": false,
          "name": "timestamp",
          "type": "uint256"
        }
      ],
      "name": "oracleFeeModified",
      "type": "event"
    },
    {
      "anonymous": false,
      "inputs": [
        {
          "indexed": true,
          "name": "owner",
          "type": "address"
        },
        {
          "indexed": true,
          "name": "amount",
          "type": "uint256"
        },
        {
          "indexed": false,
          "name": "timestamp",
          "type": "uint256"
        }
      ],
      "name": "pliDeposited",
      "type": "event"
    },
    {
      "anonymous": false,
      "inputs": [
        {
          "indexed": true,
          "name": "owner",
          "type": "address"
        },
        {
          "indexed": true,
          "name": "amount",
          "type": "uint256"
        },
        {
          "indexed": false,
          "name": "timestamp",
          "type": "uint256"
        }
      ],
      "name": "withdrawnPli",
      "type": "event"
    },
    {
      "anonymous": false,
      "inputs": [
        {
          "indexed": true,
          "name": "owner",
          "type": "address"
        },
        {
          "indexed": true,
          "name": "requestID",
          "type": "bytes32"
        },
        {
          "indexed": true,
          "name": "payment",
          "type": "uint256"
        },
        {
          "indexed": false,
          "name": "expiration",
          "type": "uint256"
        },
        {
          "indexed": false,
          "name": "timestamp",
          "type": "uint256"
        }
      ],
      "name": "canceledPluginRequest",
      "type": "event"
    },
    {
      "anonymous": false,
      "inputs": [
        {
          "indexed": true,
          "name": "previousOwner",
          "type": "address"
        }
      ],
      "name": "OwnershipRenounced",
      "type": "event"
    },
    {
      "anonymous": false,
      "inputs": [
        {
          "indexed": true,
          "name": "previousOwner",
          "type": "address"
        },
        {
          "indexed": true,
          "name": "newOwner",
          "type": "address"
        }
      ],
      "name": "OwnershipTransferred",
      "type": "event"
    },
    {
      "anonymous": false,
      "inputs": [
        {
          "indexed": true,
          "name": "id",
          "type": "bytes32"
        }
      ],
      "name": "PluginRequested",
      "type": "event"
    },
    {
      "anonymous": false,
      "inputs": [
        {
          "indexed": true,
          "name": "id",
          "type": "bytes32"
        }
      ],
      "name": "PluginFulfilled",
      "type": "event"
    },
    {
      "anonymous": false,
      "inputs": [
        {
          "indexed": true,
          "name": "id",
          "type": "bytes32"
        }
      ],
      "name": "PluginCancelled",
      "type": "event"
    },
    {
      "constant": false,
      "inputs": [
        {
          "name": "_value",
          "type": "uint256"
        }
      ],
      "name": "depositPLI",
      "outputs": [
        {
          "name": "",
          "type": "bool"
        }
      ],
      "payable": false,
      "stateMutability": "nonpayable",
      "type": "function"
    },
    {
      "constant": true,
      "inputs": [],
      "name": "showPrice",
      "outputs": [
        {
          "name": "",
          "type": "uint256"
        }
      ],
      "payable": false,
      "stateMutability": "view",
      "type": "function"
    },
    {
      "constant": false,
      "inputs": [
        {
          "name": "_fee",
          "type": "uint256"
        }
      ],
      "name": "setOracleFee",
      "outputs": [],
      "payable": false,
      "stateMutability": "nonpayable",
      "type": "function"
    },
    {
      "constant": false,
      "inputs": [
        {
          "name": "_caller",
          "type": "address"
        }
      ],
      "name": "requestData",
      "outputs": [
        {
          "name": "requestId",
          "type": "bytes32"
        }
      ],
      "payable": false,
      "stateMutability": "nonpayable",
      "type": "function"
    },
    {
      "constant": false,
      "inputs": [],
      "name": "testMyFunc",
      "outputs": [
        {
          "name": "requestId",
          "type": "bytes32"
        }
      ],
      "payable": false,
      "stateMutability": "nonpayable",
      "type": "function"
    },
    {
      "constant": false,
      "inputs": [
        {
          "name": "_requestId",
          "type": "bytes32"
        },
        {
          "name": "_currentval",
          "type": "uint256"
        }
      ],
      "name": "fulfill",
      "outputs": [],
      "payable": false,
      "stateMutability": "nonpayable",
      "type": "function"
    },
    {
      "constant": true,
      "inputs": [],
      "name": "getPluginToken",
      "outputs": [
        {
          "name": "",
          "type": "address"
        }
      ],
      "payable": false,
      "stateMutability": "view",
      "type": "function"
    },
    {
      "constant": false,
      "inputs": [],
      "name": "withdrawPli",
      "outputs": [],
      "payable": false,
      "stateMutability": "nonpayable",
      "type": "function"
    },
    {
      "constant": false,
      "inputs": [
        {
          "name": "_requestId",
          "type": "bytes32"
        },
        {
          "name": "_payment",
          "type": "uint256"
        },
        {
          "name": "_callbackFunctionId",
          "type": "bytes4"
        },
        {
          "name": "_expiration",
          "type": "uint256"
        }
      ],
      "name": "cancelRequest",
      "outputs": [],
      "payable": false,
      "stateMutability": "nonpayable",
      "type": "function"
    }
  ],
  "bytecode": "0x6080604052600160045567016345785d8a00006007553480156200002257600080fd5b506040516200331838038062003318833981018060405281019080805190602001909291908051906020019092919080518201929190602001805182019291906020018051820192919050505033600660006101000a81548173ffffffffffffffffffffffffffffffffffffffff021916908373ffffffffffffffffffffffffffffffffffffffff160217905550620000ca8562000161640100000000026401000000009004565b83600860006101000a81548173ffffffffffffffffffffffffffffffffffffffff021916908373ffffffffffffffffffffffffffffffffffffffff160217905550826009908051906020019062000123929190620001a5565b5081600c90805190602001906200013c929190620001a5565b5080600d908051906020019062000155929190620001a5565b50505050505062000254565b80600260006101000a81548173ffffffffffffffffffffffffffffffffffffffff021916908373ffffffffffffffffffffffffffffffffffffffff16021790555050565b828054600181600116156101000203166002900490600052602060002090601f016020900481019282601f10620001e857805160ff191683800117855562000219565b8280016001018555821562000219579182015b8281111562000218578251825591602001919060010190620001fb565b5b5090506200022891906200022c565b5090565b6200025191905b808211156200024d57600081600090555060010162000233565b5090565b90565b6130b480620002646000396000f300608060405260043610610112576000357c0100000000000000000000000000000000000000000000000000000000900463ffffffff1680632d8c762c1461011757806337fccd301461014a5780634357855e14610161578063698996f81461019c578063715018a6146101c75780637dc0d1d0146101de5780638205bf6a146102355780638da5cb5b146102605780638e0e0abb146102b75780639dd4cc5d146102e2578063a1fd4b3414610341578063a2e36c5f1461036c578063a4b6f67e146103f6578063b6d9ef601461044d578063c2939d971461047a578063d378d5eb1461050a578063e2fc96c91461054f578063ec65d0f8146105df578063f2fde38b1461064d578063fc54286414610690575b600080fd5b34801561012357600080fd5b5061012c610720565b60405180826000191660001916815260200191505060405180910390f35b34801561015657600080fd5b5061015f610b97565b005b34801561016d57600080fd5b5061019a600480360381019080803560001916906020019092919080359060200190929190505050610e7d565b005b3480156101a857600080fd5b506101b161103a565b6040518082815260200191505060405180910390f35b3480156101d357600080fd5b506101dc611040565b005b3480156101ea57600080fd5b506101f3611145565b604051808273ffffffffffffffffffffffffffffffffffffffff1673ffffffffffffffffffffffffffffffffffffffff16815260200191505060405180910390f35b34801561024157600080fd5b5061024a61116b565b6040518082815260200191505060405180910390f35b34801561026c57600080fd5b50610275611171565b604051808273ffffffffffffffffffffffffffffffffffffffff1673ffffffffffffffffffffffffffffffffffffffff16815260200191505060405180910390f35b3480156102c357600080fd5b506102cc611197565b6040518082815260200191505060405180910390f35b3480156102ee57600080fd5b50610323600480360381019080803573ffffffffffffffffffffffffffffffffffffffff1690602001909291905050506111a1565b60405180826000191660001916815260200191505060405180910390f35b34801561034d57600080fd5b506103566116ee565b6040518082815260200191505060405180910390f35b34801561037857600080fd5b506103ad600480360381019080803573ffffffffffffffffffffffffffffffffffffffff1690602001909291905050506116f4565b604051808373ffffffffffffffffffffffffffffffffffffffff1673ffffffffffffffffffffffffffffffffffffffff1681526020018281526020019250505060405180910390f35b34801561040257600080fd5b5061040b611738565b604051808273ffffffffffffffffffffffffffffffffffffffff1673ffffffffffffffffffffffffffffffffffffffff16815260200191505060405180910390f35b34801561045957600080fd5b5061047860048036038101908080359060200190929190505050611747565b005b34801561048657600080fd5b5061048f611916565b6040518080602001828103825283818151815260200191508051906020019080838360005b838110156104cf5780820151818401526020810190506104b4565b50505050905090810190601f1680156104fc5780820380516001836020036101000a031916815260200191505b509250505060405180910390f35b34801561051657600080fd5b50610535600480360381019080803590602001909291905050506119b4565b604051808215151515815260200191505060405180910390f35b34801561055b57600080fd5b50610564611d3d565b6040518080602001828103825283818151815260200191508051906020019080838360005b838110156105a4578082015181840152602081019050610589565b50505050905090810190601f1680156105d15780820380516001836020036101000a031916815260200191505b509250505060405180910390f35b3480156105eb57600080fd5b5061064b60048036038101908080356000191690602001909291908035906020019092919080357bffffffffffffffffffffffffffffffffffffffffffffffffffffffff1916906020019092919080359060200190929190505050611ddb565b005b34801561065957600080fd5b5061068e600480360381019080803573ffffffffffffffffffffffffffffffffffffffff169060200190929190505050611ea5565b005b34801561069c57600080fd5b506106a5611f0d565b6040518080602001828103825283818151815260200191508051906020019080838360005b838110156106e55780820151818401526020810190506106ca565b50505050905090810190601f1680156107125780820380516001836020036101000a031916815260200191505b509250505060405180910390f35b60008061072b612fb6565b600660009054906101000a900473ffffffffffffffffffffffffffffffffffffffff1673ffffffffffffffffffffffffffffffffffffffff163373ffffffffffffffffffffffffffffffffffffffff1614151561078757600080fd5b66038d7ea4c68000915061086161083760098054600181600116156101000203166002900480601f01602080910402602001604051908101604052809291908181526020018280546001816001161561010002031660029004801561082d5780601f106108025761010080835404028352916020019161082d565b820191906000526020600020905b81548152906001019060200180831161081057829003601f168201915b5050505050611fab565b30634357855e7c010000000000000000000000000000000000000000000000000000000002611fd6565b90506109476040805190810160405280600681526020017f5f6673796d730000000000000000000000000000000000000000000000000000815250600c8054600181600116156101000203166002900480601f0160208091040260200160405190810160405280929190818152602001828054600181600116156101000203166002900480156109325780601f1061090757610100808354040283529160200191610932565b820191906000526020600020905b81548152906001019060200180831161091557829003601f168201915b5050505050836120079092919063ffffffff16565b610a2b6040805190810160405280600681526020017f5f7473796d730000000000000000000000000000000000000000000000000000815250600d8054600181600116156101000203166002900480601f016020809104026020016040519081016040528092919081815260200182805460018160011615610100020316600290048015610a165780601f106109eb57610100808354040283529160200191610a16565b820191906000526020600020905b8154815290600101906020018083116109f957829003601f168201915b5050505050836120079092919063ffffffff16565b610a776040805190810160405280600581526020017f74696d65730000000000000000000000000000000000000000000000000000008152506127108361203a9092919063ffffffff16565b42600b81905550610aab600860009054906101000a900473ffffffffffffffffffffffffffffffffffffffff16828461206d565b92508260001916610b5560098054600181600116156101000203166002900480601f016020809104026020016040519081016040528092919081815260200182805460018160011615610100020316600290048015610b4b5780601f10610b2057610100808354040283529160200191610b4b565b820191906000526020600020905b815481529060010190602001808311610b2e57829003601f168201915b5050505050611fab565b600019167f5c2a40ce8b52b049408e87e265837441183a403b84708378da0733b1812aca45600b546040518082815260200191505060405180910390a3505090565b600080600660009054906101000a900473ffffffffffffffffffffffffffffffffffffffff1673ffffffffffffffffffffffffffffffffffffffff163373ffffffffffffffffffffffffffffffffffffffff16141515610bf657600080fd5b610bfe6123f9565b91508173ffffffffffffffffffffffffffffffffffffffff166370a08231306040518263ffffffff167c0100000000000000000000000000000000000000000000000000000000028152600401808273ffffffffffffffffffffffffffffffffffffffff1673ffffffffffffffffffffffffffffffffffffffff168152602001915050602060405180830381600087803b158015610c9b57600080fd5b505af1158015610caf573d6000803e3d6000fd5b505050506040513d6020811015610cc557600080fd5b810190808051906020019092919050505090508173ffffffffffffffffffffffffffffffffffffffff1663a9059cbb33836040518363ffffffff167c0100000000000000000000000000000000000000000000000000000000028152600401808373ffffffffffffffffffffffffffffffffffffffff1673ffffffffffffffffffffffffffffffffffffffff16815260200182815260200192505050602060405180830381600087803b158015610d7b57600080fd5b505af1158015610d8f573d6000803e3d6000fd5b505050506040513d6020811015610da557600080fd5b81019080805190602001909291905050501515610e2a576040517f08c379a00000000000000000000000000000000000000000000000000000000081526004018080602001828103825260128152602001807f556e61626c6520746f207472616e73666572000000000000000000000000000081525060200191505060405180910390fd5b803373ffffffffffffffffffffffffffffffffffffffff167f206b81efe493dee232c8527601476f3b74ffb40bda67a25349cf374d16d1ddee426040518082815260200191505060405180910390a35050565b8160056000826000191660001916815260200190815260200160002060009054906101000a900473ffffffffffffffffffffffffffffffffffffffff1673ffffffffffffffffffffffffffffffffffffffff163373ffffffffffffffffffffffffffffffffffffffff16141515610f82576040517f08c379a00000000000000000000000000000000000000000000000000000000081526004018080602001828103825260288152602001807f536f75726365206d75737420626520746865206f7261636c65206f662074686581526020017f207265717565737400000000000000000000000000000000000000000000000081525060400191505060405180910390fd5b60056000826000191660001916815260200190815260200160002060006101000a81549073ffffffffffffffffffffffffffffffffffffffff021916905580600019167fa40ad10b942505047c532a7399bf5eac2768b11b7155b40ec80309aea567f99860405160405180910390a28183600019167f29d1fd44cc39a4213a364818c158187934866b333b04a59815cdf69b58c809c0426040518082815260200191505060405180910390a381600a81905550505050565b600a5481565b600660009054906101000a900473ffffffffffffffffffffffffffffffffffffffff1673ffffffffffffffffffffffffffffffffffffffff163373ffffffffffffffffffffffffffffffffffffffff1614151561109c57600080fd5b600660009054906101000a900473ffffffffffffffffffffffffffffffffffffffff1673ffffffffffffffffffffffffffffffffffffffff167ff8df31144d9c2f0f6b59d69b8b98abd5459d07f2742c4df920b25aae33c6482060405160405180910390a26000600660006101000a81548173ffffffffffffffffffffffffffffffffffffffff021916908373ffffffffffffffffffffffffffffffffffffffff160217905550565b600860009054906101000a900473ffffffffffffffffffffffffffffffffffffffff1681565b600b5481565b600660009054906101000a900473ffffffffffffffffffffffffffffffffffffffff1681565b6000600a54905090565b60008060006111ae612fb6565b6111b785612423565b9250600e60008673ffffffffffffffffffffffffffffffffffffffff1673ffffffffffffffffffffffffffffffffffffffff1681526020019081526020016000206001015491508282111515611275576040517f08c379a00000000000000000000000000000000000000000000000000000000081526004018080602001828103825260158152602001807f4e4f5f53554646494349454e545f43524544495453000000000000000000000081525060200191505060405180910390fd5b611288838361248b90919063ffffffff16565b600e60008773ffffffffffffffffffffffffffffffffffffffff1673ffffffffffffffffffffffffffffffffffffffff1681526020019081526020016000206001018190555061139e61137460098054600181600116156101000203166002900480601f01602080910402602001604051908101604052809291908181526020018280546001816001161561010002031660029004801561136a5780601f1061133f5761010080835404028352916020019161136a565b820191906000526020600020905b81548152906001019060200180831161134d57829003601f168201915b5050505050611fab565b30634357855e7c010000000000000000000000000000000000000000000000000000000002611fd6565b90506114846040805190810160405280600681526020017f5f6673796d730000000000000000000000000000000000000000000000000000815250600c8054600181600116156101000203166002900480601f01602080910402602001604051908101604052809291908181526020018280546001816001161561010002031660029004801561146f5780601f106114445761010080835404028352916020019161146f565b820191906000526020600020905b81548152906001019060200180831161145257829003601f168201915b5050505050836120079092919063ffffffff16565b6115686040805190810160405280600681526020017f5f7473796d730000000000000000000000000000000000000000000000000000815250600d8054600181600116156101000203166002900480601f0160208091040260200160405190810160405280929190818152602001828054600181600116156101000203166002900480156115535780601f1061152857610100808354040283529160200191611553565b820191906000526020600020905b81548152906001019060200180831161153657829003601f168201915b5050505050836120079092919063ffffffff16565b6115b46040805190810160405280600581526020017f74696d65730000000000000000000000000000000000000000000000000000008152506127108361203a9092919063ffffffff16565b6115e1600860009054906101000a900473ffffffffffffffffffffffffffffffffffffffff16828561206d565b935042600b81905550836000191661169260098054600181600116156101000203166002900480601f0160208091040260200160405190810160405280929190818152602001828054600181600116156101000203166002900480156116885780601f1061165d57610100808354040283529160200191611688565b820191906000526020600020905b81548152906001019060200180831161166b57829003601f168201915b5050505050611fab565b600019168673ffffffffffffffffffffffffffffffffffffffff167f4d89bba2f5d1df75593b9f6fa37d7e8ffabf866f73c83f6626a0141ada9b90e3600b546040518082815260200191505060405180910390a4505050919050565b60075481565b600e6020528060005260406000206000915090508060000160009054906101000a900473ffffffffffffffffffffffffffffffffffffffff16908060010154905082565b60006117426123f9565b905090565b600660009054906101000a900473ffffffffffffffffffffffffffffffffffffffff1673ffffffffffffffffffffffffffffffffffffffff163373ffffffffffffffffffffffffffffffffffffffff161415156117a357600080fd5b60008111151561181b576040517f08c379a000000000000000000000000000000000000000000000000000000000815260040180806020018281038252600b8152602001807f696e76616c69642066656500000000000000000000000000000000000000000081525060200191505060405180910390fd5b60075481141515156118bb576040517f08c379a00000000000000000000000000000000000000000000000000000000081526004018080602001828103825260218152602001807f696e707574206665652069732073616d65206173206578697374696e6720666581526020017f650000000000000000000000000000000000000000000000000000000000000081525060400191505060405180910390fd5b806007819055506007543373ffffffffffffffffffffffffffffffffffffffff167f0d0e31e06a218361b89fcca30bb4281f997927319f35e355787edbc203873baa426040518082815260200191505060405180910390a350565b60098054600181600116156101000203166002900480601f0160208091040260200160405190810160405280929190818152602001828054600181600116156101000203166002900480156119ac5780601f10611981576101008083540402835291602001916119ac565b820191906000526020600020905b81548152906001019060200180831161198f57829003601f168201915b505050505081565b6000806119bf613024565b600068056bc75e2d631000008511151515611a42576040517f08c379a00000000000000000000000000000000000000000000000000000000081526004018080602001828103825260198152602001807f4e4f545f4d4f52455f5448414e5f3130305f414c4c4f5745440000000000000081525060200191505060405180910390fd5b611a4a6123f9565b92508273ffffffffffffffffffffffffffffffffffffffff166323b872dd3330886040518463ffffffff167c0100000000000000000000000000000000000000000000000000000000028152600401808473ffffffffffffffffffffffffffffffffffffffff1673ffffffffffffffffffffffffffffffffffffffff1681526020018373ffffffffffffffffffffffffffffffffffffffff1673ffffffffffffffffffffffffffffffffffffffff1681526020018281526020019350505050602060405180830381600087803b158015611b2357600080fd5b505af1158015611b37573d6000803e3d6000fd5b505050506040513d6020811015611b4d57600080fd5b810190808051906020019092919050505050600e60003373ffffffffffffffffffffffffffffffffffffffff1673ffffffffffffffffffffffffffffffffffffffff1681526020019081526020016000206040805190810160405290816000820160009054906101000a900473ffffffffffffffffffffffffffffffffffffffff1673ffffffffffffffffffffffffffffffffffffffff1673ffffffffffffffffffffffffffffffffffffffff1681526020016001820154815250509150611c228583602001516124a490919063ffffffff16565b905060408051908101604052803373ffffffffffffffffffffffffffffffffffffffff16815260200182815250600e60003373ffffffffffffffffffffffffffffffffffffffff1673ffffffffffffffffffffffffffffffffffffffff16815260200190815260200160002060008201518160000160006101000a81548173ffffffffffffffffffffffffffffffffffffffff021916908373ffffffffffffffffffffffffffffffffffffffff16021790555060208201518160010155905050843373ffffffffffffffffffffffffffffffffffffffff167fd77b6fa21348b1fa4d0f10fe2c836a36131a1e9fd68ea150be74e66bf31d5a19426040518082815260200191505060405180910390a360019350505050919050565b600d8054600181600116156101000203166002900480601f016020809104026020016040519081016040528092919081815260200182805460018160011615610100020316600290048015611dd35780601f10611da857610100808354040283529160200191611dd3565b820191906000526020600020905b815481529060010190602001808311611db657829003601f168201915b505050505081565b600660009054906101000a900473ffffffffffffffffffffffffffffffffffffffff1673ffffffffffffffffffffffffffffffffffffffff163373ffffffffffffffffffffffffffffffffffffffff16141515611e3757600080fd5b611e43848484846124c0565b8284600019163373ffffffffffffffffffffffffffffffffffffffff167f02bfc7950cf4025fa506ef9c946e820ef7f98c6887935ffe6d00abc2b7f1e3e28442604051808381526020018281526020019250505060405180910390a450505050565b600660009054906101000a900473ffffffffffffffffffffffffffffffffffffffff1673ffffffffffffffffffffffffffffffffffffffff163373ffffffffffffffffffffffffffffffffffffffff16141515611f0157600080fd5b611f0a8161265b565b50565b600c8054600181600116156101000203166002900480601f016020809104026020016040519081016040528092919081815260200182805460018160011615610100020316600290048015611fa35780601f10611f7857610100808354040283529160200191611fa3565b820191906000526020600020905b815481529060010190602001808311611f8657829003601f168201915b505050505081565b60006060829050600081511415611fc85760006001029150611fd0565b602083015191505b50919050565b611fde612fb6565b611fe6612fb6565b611ffd85858584612757909392919063ffffffff16565b9150509392505050565b61201e82846080015161281190919063ffffffff16565b61203581846080015161281190919063ffffffff16565b505050565b61205182846080015161281190919063ffffffff16565b61206881846080015161283690919063ffffffff16565b505050565b600030600454604051602001808373ffffffffffffffffffffffffffffffffffffffff1673ffffffffffffffffffffffffffffffffffffffff166c01000000000000000000000000028152601401828152602001925050506040516020818303038152906040526040518082805190602001908083835b60208310151561210957805182526020820191506020810190506020830392506120e4565b6001836020036101000a038019825116818451168082178552505050505050905001915050604051809103902090506004548360600181815250508360056000836000191660001916815260200190815260200160002060006101000a81548173ffffffffffffffffffffffffffffffffffffffff021916908373ffffffffffffffffffffffffffffffffffffffff16021790555080600019167fa6745906207afb96a5801b8e5711fd7b74c5780ce893a973806e179d675bbe2460405160405180910390a2600260009054906101000a900473ffffffffffffffffffffffffffffffffffffffff1673ffffffffffffffffffffffffffffffffffffffff16634000aea08584612218876128dc565b6040518463ffffffff167c0100000000000000000000000000000000000000000000000000000000028152600401808473ffffffffffffffffffffffffffffffffffffffff1673ffffffffffffffffffffffffffffffffffffffff16815260200183815260200180602001828103825283818151815260200191508051906020019080838360005b838110156122bb5780820151818401526020810190506122a0565b50505050905090810190601f1680156122e85780820380516001836020036101000a031916815260200191505b50945050505050602060405180830381600087803b15801561230957600080fd5b505af115801561231d573d6000803e3d6000fd5b505050506040513d602081101561233357600080fd5b810190808051906020019092919050505015156123de576040517f08c379a00000000000000000000000000000000000000000000000000000000081526004018080602001828103825260238152602001807f756e61626c6520746f207472616e73666572416e6443616c6c20746f206f726181526020017f636c65000000000000000000000000000000000000000000000000000000000081525060400191505060405180910390fd5b60016004600082825401925050819055508090509392505050565b6000600260009054906101000a900473ffffffffffffffffffffffffffffffffffffffff16905090565b6000808273ffffffffffffffffffffffffffffffffffffffff1673ef0eef30a645aa9c39d4383321ccc0df906ff12c73ffffffffffffffffffffffffffffffffffffffff16141561247c57655af3107a40009050612482565b60075490505b80915050919050565b600082821115151561249957fe5b818303905092915050565b600081830190508281101515156124b757fe5b80905092915050565b600060056000866000191660001916815260200190815260200160002060009054906101000a900473ffffffffffffffffffffffffffffffffffffffff16905060056000866000191660001916815260200190815260200160002060006101000a81549073ffffffffffffffffffffffffffffffffffffffff021916905584600019167f715822738dad692e521ebc0193d189bf23153eb1d4420173d6b30cd8add9f9a660405160405180910390a28073ffffffffffffffffffffffffffffffffffffffff16636ee4d553868686866040518563ffffffff167c0100000000000000000000000000000000000000000000000000000000028152600401808560001916600019168152602001848152602001837bffffffffffffffffffffffffffffffffffffffffffffffffffffffff19167bffffffffffffffffffffffffffffffffffffffffffffffffffffffff19168152602001828152602001945050505050600060405180830381600087803b15801561263c57600080fd5b505af1158015612650573d6000803e3d6000fd5b505050505050505050565b600073ffffffffffffffffffffffffffffffffffffffff168173ffffffffffffffffffffffffffffffffffffffff161415151561269757600080fd5b8073ffffffffffffffffffffffffffffffffffffffff16600660009054906101000a900473ffffffffffffffffffffffffffffffffffffffff1673ffffffffffffffffffffffffffffffffffffffff167f8be0079c531659141344cd1fd0a4f28419497f9722a3daafe3b4186f6b6457e060405160405180910390a380600660006101000a81548173ffffffffffffffffffffffffffffffffffffffff021916908373ffffffffffffffffffffffffffffffffffffffff16021790555050565b61275f612fb6565b61276f8560800151610100612b07565b50838560000190600019169081600019168152505082856020019073ffffffffffffffffffffffffffffffffffffffff16908173ffffffffffffffffffffffffffffffffffffffff16815250508185604001907bffffffffffffffffffffffffffffffffffffffffffffffffffffffff191690817bffffffffffffffffffffffffffffffffffffffffffffffffffffffff191681525050849050949350505050565b61281e8260038351612b61565b6128318183612cbf90919063ffffffff16565b505050565b7fffffffffffffffffffffffffffffffffffffffffffffffff000000000000000081121561286d576128688282612ce1565b6128d8565b67ffffffffffffffff81131561288c576128878282612d52565b6128d7565b6000811215156128a7576128a282600083612b61565b6128d6565b6128d5826001837fffffffffffffffffffffffffffffffffffffffffffffffffffffffffffffffff03612b61565b5b5b5b5050565b6060600360009054906101000a900473ffffffffffffffffffffffffffffffffffffffff1673ffffffffffffffffffffffffffffffffffffffff16634042994690507c01000000000000000000000000000000000000000000000000000000000260008084600001518560200151866040015187606001516001896080015160000151604051602401808973ffffffffffffffffffffffffffffffffffffffff1673ffffffffffffffffffffffffffffffffffffffff16815260200188815260200187600019166000191681526020018673ffffffffffffffffffffffffffffffffffffffff1673ffffffffffffffffffffffffffffffffffffffff168152602001857bffffffffffffffffffffffffffffffffffffffffffffffffffffffff19167bffffffffffffffffffffffffffffffffffffffffffffffffffffffff1916815260200184815260200183815260200180602001828103825283818151815260200191508051906020019080838360005b83811015612a6a578082015181840152602081019050612a4f565b50505050905090810190601f168015612a975780820380516001836020036101000a031916815260200191505b509950505050505050505050604051602081830303815290604052907bffffffffffffffffffffffffffffffffffffffffffffffffffffffff19166020820180517bffffffffffffffffffffffffffffffffffffffffffffffffffffffff83818316178352505050509050919050565b612b0f613054565b6000602083811515612b1d57fe5b06141515612b3a57602082811515612b3157fe5b06602003820191505b81836020018181525050604051808452600081528281016020016040525082905092915050565b601781111515612b9357612b8d8160058460ff169060020a0260ff161784612da190919063ffffffff16565b50612cba565b60ff81111515612bda57612bbd601860058460ff169060020a021784612da190919063ffffffff16565b50612bd481600185612dc19092919063ffffffff16565b50612cb9565b61ffff81111515612c2257612c05601960058460ff169060020a021784612da190919063ffffffff16565b50612c1c81600285612dc19092919063ffffffff16565b50612cb8565b63ffffffff81111515612c6c57612c4f601a60058460ff169060020a021784612da190919063ffffffff16565b50612c6681600485612dc19092919063ffffffff16565b50612cb7565b67ffffffffffffffff81111515612cb657612c9d601b60058460ff169060020a021784612da190919063ffffffff16565b50612cb481600885612dc19092919063ffffffff16565b505b5b5b5b5b505050565b612cc7613054565b612cd983846000015151848551612de3565b905092915050565b612d0260036005600660ff169060020a021783612da190919063ffffffff16565b50612d4e82827fffffffffffffffffffffffffffffffffffffffffffffffffffffffffffffffff0360405160200180828152602001915050604051602081830303815290604052612ea0565b5050565b612d7360026005600660ff169060020a021783612da190919063ffffffff16565b50612d9d828260405160200180828152602001915050604051602081830303815290604052612ea0565b5050565b612da9613054565b612db98384600001515184612ec5565b905092915050565b612dc9613054565b612dda848560000151518585612f15565b90509392505050565b612deb613054565b600080600085518511151515612e0057600080fd5b87602001518588011115612e2b57612e2a886002612e248b602001518b8a01612f76565b02612f92565b5b875180518860208301019450808988011115612e475788870182525b60208801935050505b602085101515612e755781518352602083019250602082019150602085039450612e50565b6001856020036101000a03905080198251168184511681811785525050879350505050949350505050565b612ead8260028351612b61565b612ec08183612cbf90919063ffffffff16565b505050565b612ecd613054565b836020015183101515612eec57612eeb846002866020015102612f92565b5b8351805160208583010184815381861415612f08576001820183525b5050508390509392505050565b612f1d613054565b600085602001518584011115612f3d57612f3c86600287860102612f92565b5b6001836101000a0390508551838682010185831982511617815281518588011115612f685784870182525b505085915050949350505050565b600081831115612f8857829050612f8c565b8190505b92915050565b606082600001519050612fa58383612b07565b50612fb08382612cbf565b50505050565b60c06040519081016040528060008019168152602001600073ffffffffffffffffffffffffffffffffffffffff16815260200160007bffffffffffffffffffffffffffffffffffffffffffffffffffffffff191681526020016000815260200161301e61306e565b81525090565b6040805190810160405280600073ffffffffffffffffffffffffffffffffffffffff168152602001600081525090565b604080519081016040528060608152602001600081525090565b6040805190810160405280606081526020016000815250905600a165627a7a72305820ffa9b13467fe56aec49aecca5cf123ddb28f29484f7149f17d0396d9c565aeec0029",
  "source": "pragma solidity 0.4.24;\n\nimport \"@goplugin/contracts/src/v0.4/vendor/Ownable.sol\";\nimport \"@goplugin/contracts/src/v0.4/PluginClient.sol\";\nimport \"@goplugin/contracts/src/v0.4/vendor/SafeMathPlugin.sol\";\n\n\ncontract InternalContract is PluginClient, Ownable {\n  using SafeMathPlugin for uint256;\n  \n  address private constant REGISTRARADDRESS=address(0xeF0eef30A645Aa9c39D4383321cCc0DF906ff12c); //DO NOT REMOVE THIS\n  uint256 private constant REGISTRARFEE = 0.0001 * 10**18;   //DO NOT REMOVE THIS\n  //Initialize Oracle Payment     \n  uint256 public ORACLE_PAYMENT = 0.1 * 10**18;\n  address public oracle;  // \"0x97A6d407f4CD30936679d0a28A3bc2A7F13a2185\"\n  string  public jobId;   // \"32abe898ea834e328ebeb714c5a0991d\"\n  uint256 public currentValue;\n  uint256 public latestTimestamp;\n  string public fsyms; // from symbol eg- BTC\n  string public tsyms; // to symbol eg- USDT\n\n\n  //struct to keep track of PLI Deposits\n  struct PLIDatabase{\n    address depositor;\n    uint256 totalcredits;\n  }\n\n  mapping(address => PLIDatabase) public plidbs;\n\n  //Initialize event RequestFulfilled   \n  event RequestFulfilled(bytes32 indexed requestId,uint256 indexed currentVal,uint256 timestamp);\n  //Initialize event requestCreated   \n  event requestCreated(address indexed requester,bytes32 indexed jobId, bytes32 indexed requestId,uint256 timestamp);\n  event requestCreatedTest(bytes32 indexed jobId, bytes32 indexed requestId,uint256 timestamp);\n  event oracleFeeModified(address indexed owner,uint256 indexed oraclefee,uint256 timestamp);\n  event pliDeposited(address indexed owner,uint256 indexed amount,uint256 timestamp);\n  event withdrawnPli(address indexed owner,uint256 indexed amount,uint256 timestamp);\n  event canceledPluginRequest(address indexed owner,bytes32 indexed requestID,uint256 indexed payment,uint256 expiration,uint256 timestamp);\n\n  //Constructor to pass Pli Token Address during deployment\n  constructor(address _pli,address _oracle,string memory _jobid,string memory _fsyms, string memory _tsyms) public Ownable() {\n    setPluginToken(_pli);\n    oracle = address(_oracle);\n    jobId = _jobid;\n    fsyms = _fsyms;\n    tsyms = _tsyms;\n  }\n\n  function depositPLI(uint256 _value) public returns(bool) {\n      require(_value<=100*10**18,\"NOT_MORE_THAN_100_ALLOWED\");\n      //Transfer PLI to contract\n      PliTokenInterface pli = PliTokenInterface(pluginTokenAddress());\n      pli.transferFrom(msg.sender,address(this),_value);\n      //Track the PLI deposited for the user\n      PLIDatabase memory _plidb = plidbs[msg.sender];\n      uint256 _totalCredits = _plidb.totalcredits.add(_value);\n      plidbs[msg.sender] = PLIDatabase(\n        msg.sender,\n        _totalCredits\n      );\n      emit pliDeposited(msg.sender,_value,block.timestamp);\n      return true;\n  }\n\n  function showPrice() public view returns(uint256){\n    return currentValue;\n  }\n\n  //set Oracle fee in wei\n  function setOracleFee(uint256 _fee) public onlyOwner {\n      require(_fee > 0,\"invalid fee\");\n      require(_fee != ORACLE_PAYMENT,\"input fee is same as existing fee\");\n      ORACLE_PAYMENT = _fee;\n      emit oracleFeeModified(msg.sender,ORACLE_PAYMENT,block.timestamp);\n  }  \n\n  function getOracleFee(address _callee) internal view returns(uint256){  \n    uint256 oracleFee;\n    if((REGISTRARADDRESS==_callee)){\n      oracleFee = REGISTRARFEE;\n    }else{\n      oracleFee = ORACLE_PAYMENT;\n    }\n    return oracleFee;\n  }\n\n  //_fsyms should be the name of your source token from which you want the comparison \n  //_tsyms should be the name of your destinaiton token to which you need the comparison\n  //_jobID should be tagged in Oracle\n  //_oracle should be fulfiled with your plugin node address\n\n  function requestData(address _caller)\n    public\n    returns (bytes32 requestId)\n  {\n    uint256 _fee = getOracleFee(_caller);\n    //Check the total Credits available for the user to perform the transaction\n    uint256 _a_totalCredits = plidbs[_caller].totalcredits;\n    require(_a_totalCredits>_fee,\"NO_SUFFICIENT_CREDITS\");\n    plidbs[_caller].totalcredits = _a_totalCredits.sub(_fee);\n    \n    //Built a oracle request with the following params\n    Plugin.Request memory req = buildPluginRequest(stringToBytes32(jobId), this, this.fulfill.selector);\n    req.add(\"_fsyms\",fsyms);\n    req.add(\"_tsyms\",tsyms);\n    req.addInt(\"times\", 10000);\n    requestId = sendPluginRequestTo(oracle, req, _fee);\n    latestTimestamp = block.timestamp;\n    emit requestCreated(_caller, stringToBytes32(jobId), requestId,latestTimestamp);\n  }\n\n function testMyFunc()\n    public\n    onlyOwner\n    returns (bytes32 requestId)\n  {    \n    uint256 _fee = 0.001 * 10**18;\n    //Built a oracle request with the following params\n    Plugin.Request memory req = buildPluginRequest(stringToBytes32(jobId), this, this.fulfill.selector);\n    req.add(\"_fsyms\",fsyms);\n    req.add(\"_tsyms\",tsyms);\n    req.addInt(\"times\", 10000);\n\n    latestTimestamp = block.timestamp;\n    requestId = sendPluginRequestTo(oracle, req, _fee);\n    emit requestCreatedTest(stringToBytes32(jobId), requestId,latestTimestamp);\n  }\n\n\n  //callBack function\n  function fulfill(bytes32 _requestId, uint256 _currentval)\n    public\n    recordPluginFulfillment(_requestId)\n  {\n    // if that speed < 65kmph\n    // do write logic for token transfer\n    emit RequestFulfilled(_requestId, _currentval,block.timestamp);\n    currentValue = _currentval;\n  }\n\n  function getPluginToken() public view returns (address) {\n    return pluginTokenAddress();\n  }\n\n  //With draw pli can be invoked only by owner\n  function withdrawPli() public onlyOwner {\n    PliTokenInterface pli = PliTokenInterface(pluginTokenAddress());\n    uint256 pliBalance =  pli.balanceOf(address(this));\n    require(pli.transfer(msg.sender,pliBalance), \"Unable to transfer\");\n    emit withdrawnPli(msg.sender, pliBalance,block.timestamp);\n  }\n\n  //Cancel the existing request\n  function cancelRequest(\n    bytes32 _requestId,\n    uint256 _payment,\n    bytes4 _callbackFunctionId,\n    uint256 _expiration\n  )\n    public\n    onlyOwner\n  {\n    cancelPluginRequest(_requestId, _payment, _callbackFunctionId, _expiration);\n    emit canceledPluginRequest(msg.sender,_requestId,_payment,_expiration,block.timestamp);\n  }\n\n  //String to bytes to convert jobid to bytest32\n  function stringToBytes32(string memory source) private pure returns (bytes32 result) {\n    bytes memory tempEmptyStringTest = bytes(source);\n    if (tempEmptyStringTest.length == 0) {\n      return 0x0;\n    }\n    assembly { \n      result := mload(add(source, 32))\n    }\n  }\n\n}",
  "sourcePath": "/home/ryan/plugin-truffle-box/contracts/InternalContract.sol",
  "compiler": {
    "name": "solc",
    "version": "0.4.24+commit.e67f0147.Emscripten.clang"
  },
  "schemaVersion": "3.4.10",
  "updatedAt": "2023-02-14T18:21:26.129Z",
  "devdoc": {
    "methods": {
      "renounceOwnership()": {
        "details": "Allows the current owner to relinquish control of the contract."
      },
      "transferOwnership(address)": {
        "details": "Allows the current owner to transfer control of the contract to a newOwner.",
        "params": {
          "_newOwner": "The address to transfer ownership to."
        }
      }
    }
  },
  "userdoc": {
    "methods": {
      "renounceOwnership()": {
        "notice": "Renouncing to ownership will leave the contract without an owner. It will not be possible to call the functions with the `onlyOwner` modifier anymore."
      }
    }
  }
}